:0400000059EF2CF098
:08000800046ED8CF05F0E0CF33
:1000100006F00001E9CF0CF0EACF07F0E1CF08F0DD
:10002000E2CF09F0D9CF0AF0DACF0BF0F3CF12F01C
:10003000F4CF13F0FACF14F0F5CF15F0F6CF16F099
:10004000F7CF17F000C00EF001C00FF002C010F0A3
:1000500003C011F09DA030EF00F09EB02EEF02F033
:100060009DA236EF00F09EB2BAEF03F0F0A63CEF8F
:1000700000F0F0B0B0EF03F09DAA42EF00F09EBA9E
:10008000E1EF03F00EC000F00FC001F010C002F06D
:1000900011C003F00CC0E9FF07C0EAFF078E08C0DB
:1000A000E1FF09C0E2FF0AC0D9FF0BC0DAFF12C0AE
:1000B000F3FF13C0F4FF14C0FAFF15C0F5FF16C01C
:1000C000F6FF17C0F7FF045006C0E0FF05C0D8FFD9
:1000D0001000F76AE20FF66E000EF7220900F550E5
:1000E0001200227C217C207CF76AF80FF66E000E4D
:1000F000F7220900F55012000F7C0E7C047C057C71
:10010000F76A100FF66E010EF7220900F550120083
:1001100080C0F76A220FF66E010EF7220900F55033
:1001200012003232F76A340FF66E010EF722090020
:10013000F550120002020201010A0100002601002E
:100140000000005E0137002A0248003C00005C0FFE
:10015000F66E010EF7220900F5501200000420206F
:10016000202054454D504552494E47202020202004
:10017000202000202020202020202020202020209F
:10018000202020202020200050524553532022536D
:100190002220544F2053454C45435400002020203A
:1001A00043484F434F4C415445205459504520201B
:1001B000200000000000000000000000000000001F
:1001C000000000000000000000000000000000002F
:1001D00000000000000000000000000001043E20BC
:1001E000202020202020202020202020202020200F
:1001F000202000202020202020202020202020201F
:1002000020202020202020004D454C54202020205C
:100210002020484947485420484541540020202088
:1002200020202020202020202020202020202020CE
:10023000200000000000000000000000000000009E
:1002400000000000000000000000000000000000AE
:1002500000000000000000000000000002062A521A
:1002600045434950452020202020203D20202020AB
:100270002020002054454D50455220504F494E54A7
:100280003D202020202020002054454D5045522064
:1002900044454C54413D20202020202000204D4545
:1002A0004C5420504F494E5420203D2020202020E7
:1002B00020002053544152542044454C4159204879
:1002C00052533A2020200020535441525420444598
:1002D0004C4159204D494E3A202020000304204D26
:1002E0006F746F722073706565643A20202020203F
:1002F0002020002044757479203D202020202020DB
:100300002020202020252500202020202020202003
:1003100020202020202020202020202000202020FD
:1003200020202020202020202020202020202020CD
:10033000200000000000000000000000000000009D
:1003400000000000000000000000000000000000AD
:100350000000000000000000000000000404204F26
:10036000766572686561742020202020202020207E
:10037000202000204D6178203D20202020202020BA
:10038000202020202020430020202020202020206A
:10039000202020202020202020202020002020207D
:1003A000202020202020202020202020202020204D
:1003B000200000000000000000000000000000001D
:1003C000000000000000000000000000000000002D
:1003D00000000000000000000000000005043E20B6
:1003E000202020202020202020202020202020200D
:1003F000202000202020202020202020202020201D
:1004000020202020202020004F5645524E494748AA
:100410005420484947485420484541540020202052
:1004200020202020202020202020202020202020CC
:10043000200000000000000000000000000000009C
:1004400000000000000000000000000000000000AC
:100450000000000000000000000000000B0ECF6E46
:10046000DC0ECE6E00001B2A9E9042EF00F04D493C
:100470004C4B2020004441524B2020005748495407
:100480004520004D414E55414C0041202020202068
:100490000042202020202000432020202020004453
:1004A0002020202020004520202020200046202041
:1004B000202020004720202020200048202020202D
:1004C0002000492020202020004A20202020200039
:1004D0004B2020202020004C2020202020004D20D8
:1004E00020202020004E2020202020004F202020EF
:1004F00020200050202020202000512020202020DB
:1005000000522020202020005320202020200054B2
:1005100020202020200055202020202000562020B0
:10052000202020005720202020200058202020209C
:100530002000592020202020005A202020202000A8
:100540002D00202048454154204F46460000484990
:1005500047485420484541540000535441525420C8
:1005600044454C41592000003E20202020202020DE
:1005700020202020202020202020202000002020BB
:10058000202020202020202020202020202020206B
:10059000202000002053454C4543542054454D50E5
:1005A0004552204D4F444520000053454C205445B2
:1005B0004D504552202048454154204F46460000AA
:1005C0002053454C4543542054454D504552204DF1
:1005D0004F44452000002020202020414444205347
:1005E00045454420202020202020000054454D5027
:1005F000455220312020000054454D5045522032B4
:10060000202000004558542054454D5045520000CC
:100610007433323220646F6E65200D0A0000202092
:10062000202050524553532054454D5045522020D0
:10063000202000002020202052454D4F56452053B9
:10064000454544202020202000002020202050521A
:100650004553532054454D50455220202020000042
:10066000494E2054454D504552200000436F756E51
:1006700074646F776E00202A2A2A2A20494E20545B
:10068000454D504552202A2A2A2A0000436F756E94
:1006900074646F776E00202A2A2A2A20494E20543B
:1006A000454D504552202A2A2A2A000052454144ED
:1006B0005920202020200000202020202020202041
:1006C0002020202020202020202020200000202A60
:1006D0002A2A2A20494E2054454D504552202A2A84
:1006E0002A2A0000202A2A2A2A20494E2054454D31
:1006F000504552202A2A2A2A0000436F756E7464DE
:100700006F776E004558542054454D5045520000B7
:1007100020202020202020202020202020202020D9
:10072000202020200000202A2A2A2A20494E205456
:10073000454D504552202A2A2A2A0000524541445C
:1007400059202020202000000D0A656E640D0A004B
:100750000D0A656E640D0A000D0A656E640D0A00CF
:10076000CC6A9E92F090986B929289929D82F090C2
:1007700042EF00F09E92690ED8800101E855000119
:10078000985D03E1929289820ED06A0ED8800101B1
:10079000E8550001985D03E19292899204D0983D5A
:1007A00001D001D0982B9E9242EF00F09EAAFED776
:1007B000ABCF1AF0AECF01F01AA202D0AB98AB8843
:1007C00012009EAA16D0F2DF01C0D8F282BF11D06B
:1007D000CB5126080EE3CB51CB2B036AA30FE96E56
:1007E000000E0320EA6ED8C2EFFF010ECD6FF40EAB
:1007F000CC6F9E9A42EF00F070657263656E742054
:100800003D20256C750D0A00636D6420726573745C
:100810006172740D0A0073796E74617820696E7666
:10082000616C69640D0A00005374617274696E67CB
:10083000000064733D20256609006670743D202524
:100840006609000075313670743D20256C7509000D
:10085000745365743D2566090000202020494E53DD
:1008600054414C4C20424146464C4520202000003B
:10087000202020494E5354414C4C20424146464C86
:100880004520202000002020202020202020202083
:10089000202020202020202020200000204D6F74C8
:1008A0006F722073706565643A202020202020201C
:1008B00000002044757479203D2020202020202035
:1008C0002020200020202020202020202020202048
:1008D0002020202020202020000020202020202058
:1008E0002020202020202020202020202020000048
:1008F000204D454C5420504F494E543A2020202042
:100900002020202000002E00202020202020202039
:100910002020202020202020202020200000202017
:1009200020202020202020202020202020202020C7
:1009300020200000202020202020202020202020F7
:10094000202020202020202000002E009694969227
:10095000969096948D8496928D8296908D80938EAB
:10096000938C9288928A938093829296929292909C
:100970009294939493969398000E956E929689967E
:10098000929289929290899092948994FFEF2CF0A0
:1009900093948A94A9C28CFF93988A88420E006E21
:1009A000002EFED7000093988A98420E006E002E0B
:1009B000FED700001200020EEA6E960EE96EEF50AE
:1009C0000EE00C0E016E006A002EFED7012EFBD742
:1009D000F70E006E002EFED700D0EF2EF2D71200D9
:1009E00093988A9893948A9493968A96380E0201E3
:1009F000A96F0001CDDF010E0201966F0001DBDF60
:100A00000C0E0201A96F0001C3DF010E0201A96FE4
:100A10000001BEDF020E0201966F0001CCDF060E60
:100A20000201A96F0001B4DF01EF2DF0020E0201F7
:100A3000995F0CE3020EEA6E990EE96EEF5006E044
:100A4000020E006E002EFED7EF2EFAD70001120024
:100A5000939093908A90020E0201976FFA0E996F0D
:100A60000001E4DF0201972FF9D79380100E006E8A
:100A7000002EFED7000081B003D0000E016E11D011
:100A8000D80E006E002EFED70000969181A09681B0
:100A9000F00E996F0001CADF000E020196B1010E3F
:100AA000016E00011200939093908A90210E006EC7
:100AB000002EFED7020199530DE0939093908A8007
:100AC000210E006E002EFED781B003D0000E016E05
:100AD0001CD00CD0939093908A90210E006E002E23
:100AE000FED781A003D0000E016E0FD0A60E006EBF
:100AF000002EFED70000939093908A80A60E006E81
:100B0000002EFED70000010E016E000197EF05F0E8
:100B1000010E0201976F9751080811E3D8909633A0
:100B2000000ED8B0010E986F996F0001BCD701522A
:100B300003E1000E016E06D00201972BECD7010EE7
:100B4000016E0001120084DFCC0E0201966F0001DD
:100B5000DFDF4E0E0201966F0001DADF0201966BB5
:100B60000001D6DF0201966B0001D2DF7F0E020189
:100B7000966F0001CDDF6CDFCC0E0201966F000195
:100B8000C7DF480E0201966F0001C2DF0FEF2DF0A4
:100B900094928B920A0E0201966F00010CDF9492E0
:100BA0008B82FBEF05F0C95096C2C9FFC730FEE348
:100BB000C9CF00F0120094908B90200E0201966F26
:100BC0000001F1DF0C0E0201966F0001ECDF100E48
:100BD0000201966F0001E7DF640E0201966F0001CB
:100BE000E2DF94908B80FCEF05F0949294849490D3
:100BF00094908B80CDD7DFD75F6A616A606A17EF08
:100C00002DF0939093908A902E0E006E002EFED7BA
:100C100000009380100E006E002EFED7000002012F
:100C2000989181B09881640E996F0001FFDE000EEB
:100C3000020198B1010E016E000127EF06F0010ECE
:100C40000201966F965108080BE30001DAD70152B2
:100C500002E1D89001D0D88002019733962BF2D7C9
:100C600097C201F000011200F3DECC0E0201966F74
:100C700000014EDF440E0201966F000149DFE8DEFD
:100C8000CC0E0201966F000143DFBE0E0201966F8B
:100C900000013EDFD4DF01C094F2D1DF01C095F244
:100CA00095C203F0020194C201F003C002F00001FA
:100CB00012000900F5520DE0F6CF96F2F7CF97F249
:100CC000F5509EA8FED7AD6E96C2F6FF97C2F7FF0D
:100CD000F0D71200016603D0026602D007D0022AC4
:100CE00000C0EEFF012EFCD7022EFAD71200EA6AEE
:100CF0001E0EE96E006A026A300E016EEBDFEA6AD0
:100D00004F0EE96E010E006E026A020E016EE2DF06
:100D100025EF2DF00201A66BA551A65D3DE2F2CFB5
:100D2000A7F2F29EA2C2A9FFA69CA69EA680A850EA
:100D3000A7BFF28EA86FA4C203F0A351E96E03C04F
:100D4000EAFFEF50A85D1EE0A4C203F0A351E96ED4
:100D500003C0EAFFEFCFA7F2F250006EF29EA2C2EC
:100D6000A9FFA7C2A8FFA69CA69EA6840F01550EA8
:100D7000A76EAA0EA76EA682A6B2FED7A6940050B2
:100D8000F2120201A651A62BA4C203F0A351A32B79
:100D9000D8B4A42BA22BC0D70001120002019C6B77
:100DA0009B519C5D1CE29AC203F09951E96E03C00D
:100DB000EAFFF2CF9FF2F29E98C2A9FFA69CA69EE0
:100DC000A680A8509FBFF28EEF6E9C519C2B9AC2BA
:100DD00003F09951992BD8B49A2B982BE1D70001A5
:100DE0001200010EEA6EE70EE96E006A026A040E56
:100DF000016E70DFF2CF96F2F29EA968A69CA69EC5
:100E0000A680A850020196BFF28E6308D8B4C5D060
:100E1000956B946B9553D8A486D094511D08D8A097
:100E200082D09435966F9535976F9637973796376A
:100E30009737F80E9617EF0E9625E96E000E97215C
:100E4000EA6E2C0E9425EF6E010E9521EC6E943512
:100E5000966F9535976F9637973796379737F80E81
:100E60009617020E9625016E000E9721036E015013
:100E7000EF0FE96E000E0320EA6E95C2ECFFED5213
:100E800094C2EFFF9435966F9535976F96379737E5
:100E900096379737F80E9617040E9625016E000EBA
:100EA0009721036E0150EF0FE96E000E0320EA6EEA
:100EB0005E0E9425EF6E010E9521EC6E9435966FC3
:100EC0009535976F9637973796379737F80E961769
:100ED000060E9625016E000E9721036E0150EF0F4E
:100EE000E96E000E0320EA6E94C2EFFF9435966F10
:100EF0009535976F9637973796379737F80E961739
:100F0000070E9625016E000E9721036E0150EF0F1C
:100F1000E96E000E0320EA6E010E9425EF6E942B0D
:100F2000D8B4952B77D70101086B076B0A6B096B57
:100F30000201EF0E966FA26BA46BA36FF00EA56F6C
:100F40000001E8DE0101E76B640EE86FEA6B960EC4
:100F5000E96F010E0201976FE70E966FF10EA26F17
:100F600097C2A4F296C2A3F2040EA56F0001D2DECE
:100F7000F250006EF29EA968630EA86EA69CA69E13
:100F8000A6840F01550EA76EAA0EA76EA682A6B262
:100F9000FED7A6940050F2120201F2CF96F2F29E12
:100FA000F10EA96EA69CA69EA680A85096BFF28EB2
:100FB0000101E76F010E0201976FE70E966FF10EC8
:100FC000986F97C29AF296C299F2040E9B6F000135
:100FD000E5DE0201EF0E966F986B9A6B996FF00E3B
:100FE0009B6F0001DBDE27EF2DF00201A1510B0802
:100FF00018E3A151040DF350036A1E0F016E000E99
:10100000032201C0A2F203C0A3F203C0EAFF01C0A1
:10101000E9FF006A026A040E016E00015BDE0AD07D
:101020000201EA6A1E0EE96E006A026A300E016E63
:10103000000150DE4E6A120002016B95A0C274F2EC
:101040000C0EA16F0001D1DF12000201A251A40316
:10105000F3CF01F0F4CF00F0A503F3500026A35125
:10106000A403F3500020026E00011200016A026A1C
:10107000006A036A0201AE5102E1AD5118E0100EA0
:10108000AF6FD890AB37AC3700360336AE51035C48
:1010900002E1AD51005C07E3AD51005ED8A003064C
:1010A000AE51035ED88001360236AF2FEAD7000179
:1010B00012001BC09EF20201A06B9EC29FF2A0C252
:1010C000A3F29FC2A2F2A56B320EA46F0001BDDF96
:1010D00002C0A0F201C09FF2CE50CFCF03F00201B8
:1010E000A16FCFCFACF2AB6F040EAE6FE20EAD6F5F
:1010F0000001BCDF015002019F270250A0231B50BA
:101100009E5D03E00001D5D702019FC201F0A0C29D
:1011100002F00001120098C29AF20001CADF9AC2DE
:10112000EAFF97C2E9FF02C0ECFFED5201C0EFFFFA
:10113000120002019B51070B006E9B31016E0132C0
:1011400001321F0E011601509D25E96E000E9E21F1
:10115000EA6E016A012A002A01D00136002EFDD76D
:101160009C5303E00150EF1203D0011E0150EF1613
:101170000001120002019B51070B006E9B31016EB2
:10118000013201321F0E011601509C25E96E000E3E
:101190009D21EA6EEFCF01F0002A01D00132002E2E
:1011A000FDD7010E0116000112000201966B965147
:1011B0000208D8A07BD0D8909635036A000169EC6C
:1011C00000F00900F5CF03F00201986F03C099F217
:1011D0009B6F9C6B0F0E9E6F890E9D6F0001A9DFA8
:1011E00098C29BF202019C6B0F0E9E6F920E9D6F38
:1011F00000019FDF0201976B9751030834E3975179
:10120000030DF3509625986FD8909735036A000127
:1012100074EC00F00900F5CF03F00201996F03C0F0
:101220009AF29B6F010E9C6F0F0E9E6F920E9D6F38
:1012300000017FDF99C29BF20F0E02019D6F800EAD
:101240009C6F000197DF000E01B0010E0201996F43
:1012500098C29BF29C6F9E6B4F0E9D6F000169DFE1
:101260000201972BC9D7D8909635036A000169EC23
:1012700000F00900F5CF03F00201986F03C099F266
:101280009B6F010E9C6F0F0E9E6F890E9D6F00016C
:1012900050DF98C29BF202019C6B0F0E9E6F920E64
:1012A0009D6F000146DF0201962B81D7000105EFFB
:1012B0000AF002019691976B97510B0851E397C280
:1012C0009BF29D6B4F0E9C6F000154DF02019691C3
:1012D00001B09681000E96B1010E986F97C29BF2F5
:1012E0009D6B510E9C6F000145DF000E01B0010E99
:1012F0000201985D2BE0036A9751530FE96E000ECF
:101300000320EA6EEF2AEFCF98F2000E96B1010E9D
:10131000036A000189EC00F0016E0201985D15E39B
:10132000000E96B1010E986F97C29BF29C6F9E6B58
:10133000510E9D6F0001FDDE036A02019751530FAC
:10134000E96E000E0320EA6EEF6A08D0036A975137
:10135000530FE96E000E0320EA6EEF6A972BACD7AD
:10136000000106EF0AF0A5DE02C09BF201C09AF26E
:1013700002019D6B9C6B97C2EAFF96C2E9FFECCF1E
:1013800003F0ED52EFCF01F09B51035C19E303E151
:1013900001509A5D15E297C203F096C2E9FF03C0BF
:1013A000EAFFECCF03F0ED52EF50FF0A010F9C6F04
:1013B000320E03549D6F9A519C279B519D230DD053
:1013C00097C2EAFF96C2E9FFECCF03F0ED52EF506F
:1013D0009A5D9C6F03509B599D6F99519D5D10E3E1
:1013E00003E198519C5D0CE397C2EAFF96C2E9FFC6
:1013F0009BC2ECFFED529AC2EFFF010E016E02D0CC
:10140000000E016E00011200D0D653D70201976B77
:101410001C0E966F996B320E986F0001A4DF0201CB
:10142000949101B0948194A104D04E3C01D001D09C
:101430004E2A956B95510B08D8A001D194A159D093
:101440009551040DF350976B966F010E9625016E22
:10145000000E9721036E01501E0FE96E000E03204F
:10146000EA6EEF50010812E39551040DF350976BAB
:10147000966F010E9625016E000E9721036E0150A6
:101480001E0FE96E000E0320EA6EEF2A9551040D3F
:10149000F350976B966F1E0E9625E96E000E9721FE
:1014A000EA6EEF5226E09551040DF350996B986F58
:1014B000020E9825016E000E9921036E01501E0F39
:1014C000E96E000E0320EA6EEF3C01D012D0955178
:1014D000040DF350976B966F020E9625016E000E69
:1014E0009721036E01501E0FE96E000E0320EA6E75
:1014F000EF2A95C29BF29D6B510E9C6F00013ADE64
:1015000001524AE14E6A02019551040DF350976B66
:10151000966F010E9625016E000E9721036E015005
:101520001E0FE96E000E0320EA6EEF50020820E164
:101530009551040DF350976B966F1E0E9625E96E2C
:10154000000E9721EA6E010EEF6E9551040DF350D7
:10155000976B966F030E9625016E000E9721036E12
:1015600001501E0FE96E000E0320EA6E010EEF6EB1
:101570009551040DF350976B966F010E9625016EF1
:10158000000E9721036E01501E0FE96E000E03201E
:10159000EA6EEF6A52D0000102019551040DF3503A
:1015A000976B966F020E9625016E000E9721036EC3
:1015B00001501E0FE96E000E0320EA6EEF6A95518E
:1015C000040DF350976B966F1E0E9625E96E000E74
:1015D0009721EA6EEF5231E09551040DF350976B6D
:1015E000966F1E0E9625E96E000E9721EA6EEF6A41
:1015F0009551040DF350976B966F030E9625016E6F
:10160000000E9721036E01501E0FE96E000E03209D
:10161000EA6E020EEF6E9551040DF350976B966FC4
:10162000010E9625016E000E9721036E01501E0FCC
:10163000E96E000E0320EA6EEF6A952BFBD60001DF
:1016400058EF2DF094908B90100E0201966F0001D0
:10165000D3EC05F0640E0201966F0001D3EC05F0A7
:1016600094908B806DEF0BF00201956B946B9490CE
:101670008B90380E966F0001D3EC05F094908B8020
:10168000030E006E002EFED794908B900201966B95
:101690000001D3EC05F001500201956B00C094F2FB
:1016A00094C295F2946B966B0001D3EC05F0015057
:1016B00002010050941394908B8094C201F095C263
:1016C00002F0000181EF0BF05F50000A05E0010A13
:1016D0000AE0030A12E01BD0B5D7616A606A636A48
:1016E000626A5F2A14D0622AD8B4632A635203E183
:1016F0006250C80801E25F2A0AD0948482B406D0FE
:10170000B3D702C061F001C060F05F2A00D05AEF89
:101710002DF082BD17D06E0ED8800101E855000172
:10172000985D10E2F0969D9228EC05F0015207E0DA
:1017300034EC06F002C09BF001C09AF0828D82A7C3
:1017400001D0F0865CEF2DF082A50AD09D510008F3
:1017500007E2FF0A03E19C51240802E2828703D0DA
:101760008297929289925EEF2DF09EC2A0F29DC266
:101770009FF2A0C2EAFF02019FC2E9FFEF5206E01A
:101780009F2BD8B4A02B0001F4D702019D519F5D7F
:10179000006E9E51A059036E00C001F000011200BE
:1017A00002019C512F0806E29C51390803E3010E07
:1017B000016E02D0000E016E000107EF0CF0020175
:1017C000996B986B9A6B97C29EF296C29DF200013C
:1017D000CCDF015002019A5D43E29A519625016ED9
:1017E000000E9721036E01C0E9FFEA6EEF503D083D
:1017F00035E19A2B9A519625016E000E9721036EC2
:1018000001C0E9FFEA6EEFCF9CF20001C9D7015297
:101810001FE099C2A3F298C2A2F20201A56B0A0EC0
:10182000A46F000112DC02C099F201C098F202011B
:101830009A519625016E000E972101C0E9FFEA6ECC
:10184000300EEF5C9827000E99239A2BD3D7000116
:10185000020198C201F099C202F006D09A2BB3D7C8
:1018600098C201F099C202F00001CEEF0DF0EACF6C
:101870009EF2E9CF9DF202019739F009996F9927FD
:10188000E20F9A6F320F9C6F97510F0B9A279A278E
:101890009C27E90F9B6F9B279B2796390F0B9B2754
:1018A0009C279B379C379C1F9C3796510F0B9C277E
:1018B0009937070E986F0A0E9B079C27FDE39A073E
:1018C0009B27FDE399079A27FDE398079927FDE3F6
:1018D000020EEA6E980EE96E070E9D159D9DE92693
:1018E000000EEA22E9509C0804E1EA50020801E1F6
:1018F0009D8DEF50006E08E19DBD06D09DB90CD0C6
:101900009DB702D0200E03D09D879D99300E0026F2
:1019100000509EA8FED7AD6EEE509DADE3D70001FE
:10192000120097C29EF296C29DF21FDF01C09AF28A
:1019300099C29EF298C29DF218DF01C09BF202018B
:101940009B519A5D03E2000E016E22D09C6B9B516D
:101950009C5D1CE29C519625016E000E9721036E42
:1019600001C0E9FFEA6EEFCF9DF29C519825016E10
:10197000000E9921036E01C0E9FFEA6EEF509D5DF4
:1019800003E0000E016E04D09C2BE1D7010E016E26
:1019900000011200010E0201706FED0E6F6FA65173
:1019A000150DF3506F27000E7023A7516F27000EFF
:1019B0007023000112000201BD5310E070C2EAFF63
:1019C0006FC2E9FFBDC2EFFF6BB304D06F2BD8B479
:1019D000702B04D06F51D8B470076F07000112004C
:1019E0000900F5520CE0F6CFA1F2F7CFA2F2F5CF45
:1019F000BDF2E1DFA1C2F6FFA2C2F7FFF1D71200EC
:101A0000140E0201976F9651130802E2130E966F9F
:101A10006B93A66BA76B0001BDDF02019651960781
:101A2000000A09E0400EF66E050EF76E0001D8DFE1
:101A300002019707F3D73E0EBD6F0001BCDF020124
:101A400097519707000A06E0200EBD6F0001B3DF33
:101A5000F6D70201000112000201A451010BA66F8A
:101A6000D890A431140DF350A525A76F036AA65191
:101A7000000180EC00F00201A725A86FA96F00010A
:101A8000C8EC04F0420E006E002EFED700001200DB
:101A900093948A84A4C28CFF93988A88420E006E25
:101AA000002EFED7000093988A98420E006E002EFA
:101AB000FED70000120002016BB13FD0A06B040EF4
:101AC0006E25A16FA1510101EC5DD8A0ECC1A1F27E
:101AD0000201A26BA25103082FE3A2C2A4F2A56BDC
:101AE0000001BADF0201A36BA351130823E3A25143
:101AF0006E25150DF350036A020FA46F000E03202C
:101B0000A56F036AA351A425016EA55103220150BC
:101B1000EB0FE96E010E0320EA6EEFCFA0F2A053A7
:101B200002E1200EA06FA0C2A4F20001B1DF020109
:101B3000A32BDAD7A22BCED76B930001120009009A
:101B4000F6CF97F2F7CF98F2F5509EA8FED7AD6E7C
:101B500097C2F6FF98C2F7FF0201962F01D002D07C
:101B60000001EDD7000112000201956B946B00019A
:101B7000CC51CD11D8B47FD0CC51D8B4CD07CC2F17
:101B80007AD0CD53D8A477D0CB53D8B474D0828F29
:101B90000201976BA30E966F000111D602C095F259
:101BA00001C094F26E0E9EA8FED7AD6E3D0E9EA8AB
:101BB000FED7AD6E100EE96E95C297F294C296F202
:101BC00056DE0D0E9EA8FED7AD6E0A0E9EA8FED75D
:101BD000AD6E0201976BA30E966F996BCE0E986F48
:101BE00000019FDE01521DE094C296F209DF63DF1F
:101BF000F80EF66E070EF76E0A0E0201966F0001E0
:101C00009EDF100EE96E95C297F294C296F22FDE17
:101C10000D0E9EA8FED7AD6E0A0E9EA8FED7AD6E25
:101C20001FD00201976BA30E966F996BD70E986F1A
:101C3000000177DE01520EE0080EF66E080EF76E18
:101C400059EC06F00A0E0201966F0001DBEC04F07D
:101C5000FF0006D0160EF66E080EF76E59EC06F071
:101C6000EA6AA30EE96E006A026A280E016E6AEC47
:101C700006F0CB6B829F73EF2DF08E0E006EBDC20F
:101C800001F0BCC202F0036A015209E102C001F096
:101C9000026A080E005E015202E1006A08D0D89084
:101CA00001BE04D0023601360006F9D7019E1200AB
:101CB0000201C851D8B4A5D0D46FCC51D8B4A1D0AA
:101CC000D45F05E37F0ED427D8B09BD006D0810E19
:101CD000D45FD8A096D0D8B494D0D4C200F0016A12
:101CE000026A036AD36BC9C2D2F2D28FCAC2D1F2DE
:101CF000CBC2D0F2190ED46FCF51D05F0DE2010EDE
:101D0000D15F0AE2D25F08E2D35F06E2D32BD22B87
:101D1000D12BCF51D02728D0CE51D15F12E2010E66
:101D2000D25F0FE2D35F0DE2D32BD22BCE51D1275E
:101D3000CF51D02719E3D12B17E1D22B15E1D32BAB
:101D400013D0CD518009D25F0EE2010ED35F0BE2BA
:101D5000D32BCD518009D227CE51D127E9E3D22B05
:101D6000E7E1D32BE5D70380D42F01D00BD0D89057
:101D7000D037D137D237D337D89003360236013631
:101D8000D537BAD7D5A106D0D89001320232033266
:101D9000D53302D0000635E0D5BF1ED0D890D0375D
:101DA000D137D237D337CF51D05F07E2010ED15FA1
:101DB00004E2D25F02E2D35F1AE3CE51D15F05E2C3
:101DC000010ED25F02E2D35F12E3CD518009D25FF0
:101DD00003E2010ED35F0BE3032A09E1022A07E1C4
:101DE000012A05E1002A0DE0013202320332C9C2A4
:101DF000D4F2CD51D41BD4AF02D0018E06D0019EB7
:101E000004D0006A016A026A036A00011200800EAF
:101E1000D8A202D00201CD1B0201D26BD36BC9C282
:101E2000D1F2CD51D11BC851D8B4DFD0D06F006EE4
:101E3000CC51D8B4E3D0D05FD8B483D03EE3CDC288
:101E4000D6F2D68FCEC2D5F2CFC2D4F2D36BD89011
:101E5000D633D533D433D333D02FF8D7D1AF03D043
:101E6000D281E0D0D291D091D289020EEA6ECB0E0F
:101E7000E96EEBD0D299D1BF0AD0D0A113D0D6331E
:101E8000D533D433D333002AD8B4C7D00BD0D6BF80
:101E90000CD0D890D337D437D537D6370006D8B43E
:101EA000BCD0F5D7D28D6DD0D29DC9C2D1F2C9AF09
:101EB00002D0D68FABD0D69FA9D0CCC2D0F2CCC2A4
:101EC00000F0C851D05FC9C2D6F2D68FCAC2D5F2CF
:101ED000CBC2D4F2D36BD890D633D533D433D333EB
:101EE000D02FF8D7D1AF03D0D2839CD0D293D0914A
:101EF000D28B020EEA6ECF0EE96EA7D0D29BD1BF75
:101F00000AD0D0A113D0D633D533D433D333002A5B
:101F1000D8B483D00BD0D6BF0CD0D890D337D43719
:101F2000D537D6370006D8B478D0F5D7D28F29D098
:101F3000D29FCDC2D1F2CDAF02D0D68F67D0D69F7F
:101F400065D0CDC2D6F2D68FCEC2D5F2CFC2D4F2F2
:101F5000D1AF04D0D69FD28565D0D295D36BD09126
:101F6000020EEA6ECB0EE96E70D0D1BF1CD0C9C292
:101F7000D1F2D0A106D0D633D533D433D333002A0F
:101F80004CE0D3AF0BD0D42B09E1D52B07E1D62BF6
:101F900005E1D633D533D433002A3FE0D2BD84D710
:101FA000D2BFC6D71CD0800ED61BD6AF04D03AD035
:101FB000CDC2D1F20AD0C9C2D1F2D65306E1D5536F
:101FC00004E1D45302E1006A21D0D6BF08D0D890F2
:101FD000D337D437D537D637002EF7D71ED0D1AF69
:101FE00002D0D68F13D0D69F11D0CCC200F0CDC274
:101FF000D6F2CEC2D5F2CFC2D4F208D0C8C200F019
:10200000C9C2D6F2CAC2D5F2CBC2D4F2D6C201F04E
:10201000D5C202F0D4C203F034D0006A016A026A69
:10202000036A2FD0D36BD41FD51FD61FD31FD32B3A
:1020300005E1D42B03E1D52B01E1D62BD2B112D788
:10204000D2B354D7D2B589D7B3D7EF50D42705E34D
:10205000D52B03E1D62BD8B4D081ED52EF50D52744
:1020600003E3D62BD8B4D081ED52EF50EFBE01D0B0
:10207000800AD627D8B0D081D2B9FCD6D2BB3ED701
:1020800074D7000112000201C251D8B471D0006EA1
:10209000C651D8B46DD0002604E3810E002668E254
:1020A00004D07F0E005E64E363E0C3C2CAF2C7518E
:1020B000CA1BC38FC78FC551C903F4CFCCF2C4511B
:1020C000C803F4CF03F0F3CFCBF2C903F350CC270E
:1020D000F450CB23000E0322C551C803F350CC2784
:1020E000F450CB23000E026A03220222C351C9031B
:1020F000F350CB27F4500322000E0222C351C80331
:10210000F3500326F4500222000E016A0122C55149
:10211000C703F350CB27F4500322000E0222012202
:10212000C451C703F3500326F4500222000E0122CB
:10213000C351C703F3500226F4500122002A01BE06
:1021400005D0CB370336023601360006000ECBAF82
:102150000AD0032A02220122015005E1025003E1C4
:10216000035001E1002ACABF018ECAAF019E04D00C
:10217000006A016A026A036A000112000201A151A9
:10218000B608A16F036AA2C2A5F2A28FD890A233AB
:10219000A333A4330332023201320032A12FF6D727
:1021A000A5AF0BD0001E011E021E031E002AD8B4CC
:1021B000012AD8B4022AD8B4032A000155EF11F03D
:1021C000D8B204D0020EEA6EC10EE96E006A016A4E
:1021D000026A036A0201C16BC26BC36BC46BC0515C
:1021E000BF11BE11BD112CE0200EC56FD890B937BC
:1021F000BA37BB37BC37C137C237C337C437C05112
:10220000C45D08E1BF51C35D05E1BE51C25D02E19D
:10221000BD51C15D0FE3BD51C15FBE51D8A0BE3DF0
:10222000C25FBF51D8A0BF3DC35FC051D8A0C03D61
:10223000C45FD8800036013602360336C52FD6D7A4
:10224000C1C2EFFFC2C2ECFFC3C2ECFFC4C2ECFFCD
:1022500000011200E9500201996F98519B6F1BE039
:1022600097C2C5F296C2C4F295C2C3F294C2C2F23A
:10227000C96BC86B200EC76F820EC66F000103DFEB
:1022800003C097F202C096F201C095F200C094F22A
:1022900002019B2FE5D797C2A4F296C2A3F295C282
:1022A000A2F294C2A1F2000169D703C097F202C062
:1022B00096F201C095F200C094F2020197AF0DD0E2
:1022C0009907998B941F951F961F971F942BD8B42D
:1022D000952BD8B4962BD8B4972B3B0EA06F9A0EA3
:1022E0009F6FCA0E9E6F9D6B0A0E9B6F9851D8B45C
:1022F000992BD882020EEA6E940EE96E97C2BCF258
:1023000096C2BBF295C2BAF294C2B9F2A0C2C0F2B0
:102310009FC2BFF29EC2BEF29DC2BDF2000150DF5D
:102320000150005213E1020198299B5DD8A402D00C
:1023300000010CD099510DE00F0B9B5D01E03CE2D8
:1023400099BF3AD099BD05D0200E31D0200E0201A0
:10235000991799AB0DD0999B9851D8A49907005023
:10236000996F2D0E9EA8FED7AD6E9951006E996B98
:1023700098519B5D0BE10050996F2E0E9EA8FED7E1
:10238000AD6E9951006E200E9917000E300E99AB6C
:102390000ED0999B9851D8A499070050996F2D0E93
:1023A0009EA8FED7AD6E9951006E996B300E002637
:1023B00000509EA8FED7AD6ED892A0C2BCF29FC2BC
:1023C000BBF29EC2BAF29DC2B9F2C06BBF6BBE6BCC
:1023D0000A0EBD6F0001F4DE03C0A0F202C09FF23E
:1023E00001C09EF200C09DF202019B2F82D7000126
:1023F0001200C9C2D0F20201CD51D01BD0AF05D01E
:10240000D894D890C9BFD8802FD0C9C2D0F2CCC23E
:10241000D1F2C851D15F06E0D0AF26D0D850010A22
:10242000D86E22D0CDC2D1F2C951D15F06E0D0AF73
:102430001BD0D850010AD86E17D0CEC2D1F2CA51E3
:10244000D15F06E0D0AF10D0D850010AD86E0CD0C2
:10245000CFC2D1F2CB51D15F06E0D0AF05D0D8507A
:10246000010AD86E01D0D890000112008E0E006EC5
:102470000201B851005EB9C202F0BAC201F0028E88
:10248000005209E0D890025202E1015204E0023207
:102490000132002EF7D7B9AF05D0011E021E012A66
:1024A000D8B4022A000112000201976B966B956B5B
:1024B000946B9B6B9A6B996B986B9F6B9E6B9D6BF0
:1024C0009C6B97C0A3F296C0A2F295C0A1F294C0F3
:1024D000A0F2A2C0A7F2A1C0A6F2A0C0A5F29FC020
:1024E000A4F2D882A3C2CBF2A2C2CAF2A1C2C9F29C
:1024F000A0C2C8F2A7C2CFF2A6C2CEF2A5C2CDF248
:10250000A4C2CCF2000183DC03C071F002C070F001
:1025100001C06FF000C06EF082B119D07D6A7C6A94
:102520007B6A7A6A816B806B7F6A7E6A71C079F0A0
:1025300070C078F06FC077F06EC076F071C075F043
:1025400070C074F06FC073F06EC072F082810201CF
:10255000C56BC46BC36B800EC26F93C0C9F292C0CF
:10256000C8F291C0C7F290C0C6F200018CDD03C072
:10257000ABF202C0AAF201C0A9F200C0A8F203C0E7
:10258000C5F202C0C4F201C0C3F200C0C2F287C0EB
:10259000C9F286C0C8F285C0C7F284C0C6F273DD36
:1025A00003C0ABF202C0AAF201C0A9F200C0A8F2B7
:1025B0008FC0C5F28EC0C4F28DC0C3F28CC0C2F20F
:1025C00093C0C9F292C0C8F291C0C7F290C0C6F2DF
:1025D0005ADD03C0AFF202C0AEF201C0ADF200C0DE
:1025E000ACF203C0C5F202C0C4F201C0C3F200C025
:1025F000C2F293C0C9F292C0C8F291C0C7F290C0B3
:10260000C6F241DDD892ABC2CBF2AAC2CAF2A9C2CD
:10261000C9F2A8C2C8F203C0CFF202C0CEF201C014
:10262000CDF200C0CCF207EC0FF003C0ABF202C059
:10263000AAF201C0A9F200C0A8F20201C56BC46BE6
:10264000C36B800EC26F8BC0C9F28AC0C8F289C04A
:10265000C7F288C0C6F2000116DDD892ABC2CBF239
:10266000AAC2CAF2A9C2C9F2A8C2C8F203C0CFF274
:1026700002C0CEF201C0CDF200C0CCF207EC0FF0E8
:1026800003C097F202C096F201C095F200C094F226
:1026900093C0C5F292C0C4F291C0C3F290C0C2F21E
:1026A00093C0C9F292C0C8F291C0C7F290C0C6F2FE
:1026B000EADC03C0ABF202C0AAF201C0A9F200C07A
:1026C000A8F203C0C5F202C0C4F201C0C3F200C048
:1026D000C2F28FC0C9F28EC0C8F28DC0C7F28CC0E2
:1026E000C6F2D1DC03C0ABF202C0AAF201C0A9F26B
:1026F00000C0A8F20201C56BC46BC36B810EC26F30
:102700008BC0C9F28AC0C8F289C0C7F288C0C6F2BD
:102710000001B9DCD882ABC2CBF2AAC2CAF2A9C20C
:10272000C9F2A8C2C8F203C0CFF202C0CEF201C003
:10273000CDF200C0CCF207EC0FF003C0ABF202C048
:10274000AAF201C0A9F200C0A8F20201C56BC46BD5
:10275000C36B800EC26F93C0C9F292C0C8F291C021
:10276000C7F290C0C6F200018EDC03C0AFF202C017
:10277000AEF201C0ADF200C0ACF203C0C5F202C0BF
:10278000C4F201C0C3F200C0C2F287C0C9F286C061
:10279000C8F285C0C7F284C0C6F275DCD882ABC26D
:1027A000CBF2AAC2CAF2A9C2C9F2A8C2C8F203C037
:1027B000CFF202C0CEF201C0CDF200C0CCF207ECE5
:1027C0000FF003C09BF202C09AF201C099F200C060
:1027D00098F20201C56BC46BC36B800EC26F8BC0D5
:1027E000C9F28AC0C8F289C0C7F288C0C6F2000127
:1027F0004ADC03C09FF202C09EF201C09DF200C0FD
:102800009CF297C2C5F296C2C4F295C2C3F294C2BA
:10281000C2F271C0C9F270C0C8F26FC0C7F26EC018
:10282000C6F231DC03C0ABF202C0AAF201C0A9F2C9
:1028300000C0A8F29BC2C5F29AC2C4F299C2C3F208
:1028400098C2C2F275C0C9F274C0C8F273C0C7F2B0
:1028500072C0C6F218DCD892ABC2CBF2AAC2CAF2DE
:10286000A9C2C9F2A8C2C8F203C0CFF202C0CEF218
:1028700001C0CDF200C0CCF207EC0FF003C0ABF208
:1028800002C0AAF201C0A9F200C0A8F29FC2C5F21C
:102890009EC2C4F29DC2C3F29CC2C2F279C0C9F208
:1028A00078C0C8F277C0C7F276C0C6F243EC10F029
:1028B000D892ABC2CBF2AAC2CAF2A9C2C9F2A8C2CC
:1028C000C8F203C0CFF202C0CEF201C0CDF200C008
:1028D000CCF207EC0FF003C0ABF202C0AAF201C0C9
:1028E000A9F200C0A8F20201C56BC46BC36B800ED5
:1028F000C26F93C0C9F292C0C8F291C0C7F290C033
:10290000C6F2000143EC10F003C0AFF202C0AEF219
:1029100001C0ADF200C0ACF203C0C5F202C0C4F207
:1029200001C0C3F200C0C2F281C0C9F280C0C8F2C7
:102930007FC0C7F27EC0C6F243EC10F0D892ABC2A3
:10294000CBF2AAC2CAF2A9C2C9F2A8C2C8F203C095
:10295000CFF202C0CEF201C0CDF200C0CCF207EC43
:102960000FF003C0ABF202C0AAF201C0A9F200C08E
:10297000A8F20201C56BC46BC36B800EC26F93C01B
:10298000C9F292C0C8F291C0C7F290C0C6F200016D
:1029900043EC10F0ABC2CBF2AAC2CAF2A9C2C9F290
:1029A000A8C2C8F203C0CFF202C0CEF201C0CDF27D
:1029B00000C0CCF258EC0EF003C07DF002C07CF0F9
:1029C00001C07BF000C07AF07DC081F07CC080F057
:1029D0007BC07FF07AC07EF075C079F074C078F06B
:1029E00073C077F072C076F071C075F070C074F08B
:1029F0006FC073F06EC072F00201CB6BCA6B480EF1
:102A0000C96F850EC86F7DC0CFF27CC0CEF27BC08F
:102A1000CDF27AC0CCF20001ECDC07E37D6A7C6A7F
:102A2000480E7B6E850E7A6E14D07DC0CBF27CC0D2
:102A3000CAF27BC0C9F27AC0C8F20201CF6BCE6B7A
:102A4000CD6BCC6B0001D5DC04E37D6A7C6A7B6ACC
:102A50007A6A7DC0BBF27CC0BAF27BC0B9F27AC0A0
:102A6000B8F204DD01C083F03FEF15F082A31DD062
:102A7000020187A502D0000118D0000115D597C02A
:102A8000CBF296C0CAF295C0C9F294C0C8F2A2C0F7
:102A9000CFF2A1C0CEF2A0C0CDF29FC0CCF2A9DC93
:102AA00004E3829192908990836B0101EA516D5CFD
:102AB0000DE303E1E9516C5C09E302018785929023
:102AC00089900001836B829112D001010A0EE95DA9
:102AD000006E000EEA59036E00C001F06D50035CF9
:102AE00006E303E101506C5C02E2020187950001FC
:102AF00060EF2EF05F50020803E2010E016E02D07B
:102B0000000E016E62EF2EF05F50020806E25F6A6F
:102B100060C001F061C002F003D0000E016E026ED1
:102B20006FEF19F0BDC2CBF2BCC2CAF2BBC2C9F290
:102B3000BAC2C8F20201CF6BCE6BCD6BCC6B000179
:102B400058DC01E205E1006A016A026A036A7BD08F
:102B5000BDC2C1F2BCC2C0F2BBC2BFF2BAC2BEF2B9
:102B6000020E0201C76FBE0EC66FC7C2EAFFC6C221
:102B7000E9FFEF50CB6BCA6F7F0ECA27000ECB2345
:102B8000D890CB31CA31C7C2EAFFC6C2E9FFEF6EA7
:102B9000C1C2C5F2C0C2C4F2BFC2C3F2BEC2C2F259
:102BA000BDC2CBF2BCC2CAF2BBC2C9F2BAC2C8F241
:102BB000C1C2CFF2C0C2CEF2BFC2CDF2BEC2CCF211
:102BC000000158EC0EF0D892C1C2CBF2C0C2CAF2DA
:102BD000BFC2C9F2BEC2C8F203C0CFF202C0CEF279
:102BE00001C0CDF200C0CCF207EC0FF003C0C1F27F
:102BF00002C0C0F201C0BFF200C0BEF2C7C2EAFF0D
:102C00000201C6C2E9FFEF06C5C2CBF2C4C2CAF2D6
:102C1000C3C2C9F2C2C2C8F2C1C2CFF2C0C2CEF2B0
:102C2000BFC2CDF2BEC2CCF20001F9EC11F0D8B4B3
:102C300002D00201ADD7C2C200F0C3C201F0C4C2CB
:102C400002F0C5C203F031EF17F0A1C2BDF2A0C27D
:102C5000BCF23DEC0EF003C0A5F202C0A4F201C02C
:102C6000A3F200C0A2F2A5C2C5F2A4C2C4F2A3C2DC
:102C7000C3F2A2C2C2F20201C96BE00EC86F120E0B
:102C8000C76F8B0EC66F000143EC10F003C0A5F2B6
:102C900002C0A4F201C0A3F200C0A2F2A5C2CBF20E
:102CA000A4C2CAF2A3C2C9F2A2C2C8F20201CF6B87
:102CB000CE6BCD6B830ECC6F000158EC0EF003C0D1
:102CC000A5F202C0A4F201C0A3F200C0A2F2A5C204
:102CD000CBF2A4C2CAF2A3C2C9F2A2C2C8F20201D4
:102CE000CF6BCE6BCD6B8F0ECC6F000158EC0EF01E
:102CF00003C0A5F202C0A4F201C0A3F200C0A2F278
:102D0000D892A5C2CBF2A4C2CAF2A3C2C9F2A2C28F
:102D1000C8F29A0E0201CF6F990ECE6F590ECD6F89
:102D20007E0ECC6F000107EC0FF003C0A5F202C0CD
:102D3000A4F201C0A3F200C0A2F2960E0201A96F94
:102D4000380EA86FF20EA76F700EA66FDE0EAD6F75
:102D50001A0EAC6F480EAB6F7D0EAA6FD882CB6B8C
:102D6000CA6B480EC96F850EC86FA5C2CFF2A4C248
:102D7000CEF2A3C2CDF2A2C2CCF2000107EC0FF05A
:102D800003C0B1F202C0B0F201C0AFF200C0AEF2B7
:102D9000ADC2C5F2ACC2C4F2ABC2C3F2AAC2C2F2A7
:102DA000ADC2C9F2ACC2C8F2ABC2C7F2AAC2C6F287
:102DB00043EC10F003C0BDF202C0BCF201C0BBF294
:102DC00000C0BAF20201C56BC46BC36B810EC26F47
:102DD000A9C2C9F2A8C2C8F2A7C2C7F2A6C2C6F267
:102DE000000143EC10F003C0C1F202C0C0F201C008
:102DF000BFF200C0BEF203C0C5F202C0C4F201C0FF
:102E0000C3F200C0C2F2B1C2C9F2B0C2C8F2AFC2CE
:102E1000C7F2AEC2C6F243EC10F0D882BDC2CBF20C
:102E2000BCC2CAF2BBC2C9F2BAC2C8F203C0CFF276
:102E300002C0CEF201C0CDF200C0CCF207EC0FF020
:102E400003C0B5F202C0B4F201C0B3F200C0B2F2E6
:102E5000B5C2BDF2B4C2BCF2B3C2BBF2B2C2BAF2E6
:102E600061D603C0B9F202C0B8F201C0B7F200C027
:102E7000B6F2D882B9C2CBF2B8C2CAF2B7C2C9F2AE
:102E8000B6C2C8F2ADC2CFF2ACC2CEF2ABC2CDF286
:102E9000AAC2CCF207EC0FF003C0B9F202C0B8F23C
:102EA00001C0B7F200C0B6F20201C56BC46BC36BC0
:102EB000800EC26FA9C2C9F2A8C2C8F2A7C2C7F2E7
:102EC000A6C2C6F2000143EC10F0B9C2CBF2B8C200
:102ED000CAF2B7C2C9F2B6C2C8F203C0CFF202C08A
:102EE000CEF201C0CDF200C0CCF258EC0EF003C01F
:102EF000B9F202C0B8F201C0B7F200C0B6F2D8927F
:102F0000B9C2CBF2B8C2CAF2B7C2C9F2B6C2C8F2ED
:102F10000201CF6BCE6BCD6B800ECC6F000107EC46
:102F20000FF003C0B9F202C0B8F201C0B7F200C09E
:102F3000B6F2B6C200F0B7C201F0B8C202F0B9C230
:102F400003F078EF19F00201B791ABC2B0F2AAC258
:102F5000AFF2A9C2AEF2A8C2ADF2ABC2CBF2AAC226
:102F6000CAF2A9C2C9F2A8C2C8F2CF6BCE6BCD6BB0
:102F7000CC6B0001F9EC11F006E30201B781AE5110
:102F8000800AAE6F0001B0C2CBF2AFC2CAF2AEC2CD
:102F9000C9F2ADC2C8F20201CF6BCE6BCD6B8E0E03
:102FA000CC6F0001F9EC11F001E219E1B0C2BBF203
:102FB000AFC2BAF2AEC2B9F2ADC2B8F236EC12F09C
:102FC00002C0BDF201C0BCF23DEC0EF003C0B4F291
:102FD00002C0B3F201C0B2F200C0B1F2D3D0B0C2AD
:102FE000CBF2AFC2CAF2AEC2C9F2ADC2C8F2800E15
:102FF0000201CF6F960ECE6F180ECD6F960ECC6F6E
:103000000001F9EC11F0D8A0B5D0B0C2C5F2AFC242
:10301000C4F2AEC2C3F2ADC2C2F20201C96BC86B48
:10302000C76B700EC66F000143EC10F003C0BBF21B
:1030300002C0BAF201C0B9F200C0B8F236EC12F028
:1030400002C0B6F201C0B5F2B0C2C5F2AFC2C4F25E
:10305000AEC2C3F2ADC2C2F20201C96BC86BC76B8C
:10306000700EC66F000143EC10F003C0BBF202C04B
:10307000BAF201C0B9F200C0B8F2B6C2BDF2B5C230
:10308000BCF23DEC0EF0D882BBC2CBF2BAC2CAF29F
:10309000B9C2C9F2B8C2C8F203C0CFF202C0CEF2C0
:1030A00001C0CDF200C0CCF207EC0FF00201C56BFD
:1030B000C46BC36B8E0EC26F03C0C9F202C0C8F2EC
:1030C00001C0C7F200C0C6F2000143EC10F003C01B
:1030D000B0F202C0AFF201C0AEF200C0ADF2B6C2B3
:1030E000BDF2B5C2BCF23DEC0EF00201C56BC46B83
:1030F000C36B8E0EC26F03C0C9F202C0C8F201C01A
:10310000C7F200C0C6F2000143EC10F003C0B4F2F5
:1031100002C0B3F201C0B2F200C0B1F2B0C2BBF261
:10312000AFC2BAF2AEC2B9F2ADC2B8F236EC12F02A
:1031300002C0BDF201C0BCF23DEC0EF0D892B4C2A8
:10314000CBF2B3C2CAF2B2C2C9F2B1C2C8F203C072
:10315000CFF202C0CEF201C0CDF200C0CCF207EC3B
:103160000FF003C0B4F202C0B3F201C0B2F200C06B
:10317000B1F208D0B0C2B4F2AFC2B3F2AEC2B2F292
:10318000ADC2B1F2B0C2BBF2AFC2BAF2AEC2B9F2D6
:10319000ADC2B8F236EC12F002C0BDF201C0BCF212
:1031A0003DEC0EF0D882B0C2CBF2AFC2CAF2AEC2D2
:1031B000C9F2ADC2C8F203C0CFF202C0CEF201C064
:1031C000CDF200C0CCF207EC0FF003C0B0F202C0A9
:1031D000AFF201C0AEF200C0ADF20201B7A103D060
:1031E000B251800AB26FB0C2CBF2AFC2CAF2AEC265
:1031F000C9F2ADC2C8F2CF6BCE6BCD6BCC6B000108
:10320000F9EC11F03CE00201B7A11CD0AC531AE17B
:10321000D882B4C2CBF2B3C2CAF2B2C2C9F2B1C24E
:10322000C8F2CF6BCE6BCD6B7F0ECC6F000107EC7D
:103230000FF003C0B4F202C0B3F201C0B2F200C09A
:10324000B1F20201B7B11CD0AC2D1AD0D892B4C2E1
:10325000CBF2B3C2CAF2B2C2C9F2B1C2C8F2CF6BEA
:10326000CE6BCD6B7F0ECC6F000107EC0FF003C06F
:10327000B4F202C0B3F201C0B2F200C0B1F2020176
:10328000ABC2CBF2AAC2CAF2A9C2C9F2A8C2C8F2A2
:10329000CF6BCE6BCD6BCC6B0001F9EC11F006E17E
:1032A0000201B46BB36BB26BB16B0001B1C200F041
:1032B000B2C201F0B3C202F0B4C203F06DEF19F074
:1032C000A7C2ABF2A6C2AAF2A5C2A9F2A4C2A8F2F2
:1032D000010E0201AC6F000136D6120015D402C0F7
:1032E00095F201C094F295C2A1F294C2A0F2ADD4BD
:1032F00003C099F202C098F201C097F200C096F2A2
:103300000201CB6BCA6B200EC96F810EC86F99C2C8
:10331000CFF298C2CEF297C2CDF296C2CCF20001A3
:10332000F9EC11F01EE399C2CBF298C2CAF297C22F
:10333000C9F296C2C8F20201CF6BCE6B2F0ECD6FD1
:10334000870ECC6F0001F9EC11F00BE399C26BF022
:1033500098C26AF097C269F096C268F0060E996F3B
:1033600008D0995306E0992F04D06B6A6A6A696A9B
:10337000686A6BC09DF26AC09CF269C09BF268C02B
:103380009AF202019F6B9E6BD8929DC2CBF29CC2B7
:10339000CAF29BC2C9F29AC2C8F2CF6BCE6BCD6B98
:1033A0007E0ECC6F000107EC0FF003C0A3F202C049
:1033B000A2F201C0A1F200C0A0F29DC2A7F29CC27D
:1033C000A6F29BC2A5F29AC2A4F27ADF03C0CBF2A6
:1033D00002C0CAF201C0C9F200C0C8F2A3C2CFF253
:1033E000A2C2CEF2A1C2CDF2A0C2CCF2F9EC11F091
:1033F00001E218E19DC2A7F29CC2A6F29BC2A5F20F
:103400009AC2A4F25DDF03C0BBF202C0BAF201C0EF
:10341000B9F200C0B8F236EC12F002C09FF201C05F
:103420009EF239D09DC2A7F29CC2A6F29BC2A5F221
:103430009AC2A4F245DF03C0A3F202C0A2F201C007
:10344000A1F200C0A0F2EACFA5F2E9CFA4F2D8829F
:1034500003C0CBF202C0CAF201C0C9F200C0C8F278
:103460000201CF6BCE6BCD6B7F0ECC6F000107ECF2
:103470000FF0A5C2EAFFA4C2E9FF03C0BBF202C07D
:10348000BAF201C0B9F200C0B8F236EC12F002C0D4
:103490009FF201C09EF29FC26DF09EC26CF066EF7B
:1034A0002EF00900F5520DE0F6CF94F2F7CF95F229
:1034B000F5CFA4F248EC0DF094C2F6FF95C2F7FFE9
:1034C000F0D712000201A36BA1C2A2F2A56B800E7D
:1034D000A46F000125EC08F002C0F7FF020101C053
:1034E000A4F2010EEA6EEB0EE96E010E026E800E82
:1034F000016EA4510001A7EC00F00A000900EF6A78
:10350000F5CFEEFF012EFAD7022EF8D702016E6B2F
:10351000000191EF1AF00201716BA0C2A1F200014B
:10352000D1D7120082A31BD0020E0201976F890E21
:10353000966F996B140E986F0001B3EC09F001526D
:103540000EE0835102018B5D03E29290898002D0EC
:10355000929089908B2B8B51640801E28B6B000158
:10356000F4EF2EF00201B06B6B83B46BB36BAEC2A1
:10357000B2F2ADC2B1F2D882020EEA6EB50EE96EB9
:10358000B4C2BCF2B3C2BBF2B2C2BAF2B1C2B9F2B7
:10359000C06BBF6BBE6B0A0EBD6F0001E0EC10F09C
:1035A000B8C2BCF2B7C2BBF2B6C2BAF2B5C2B9F287
:1035B000300E0201B927000EBA23BB23BC23B9C2C7
:1035C000BDF20001DBEC0CF0D892B4C2BCF2B3C285
:1035D000BBF2B2C2BAF2B1C2B9F20201C06BBF6BA8
:1035E000BE6B0A0EBD6F0001E0EC10F003C0B4F238
:1035F00002C0B3F201C0B2F200C0B1F20201B02BBE
:10360000B153B9E1B253B7E1B353B5E1B453B3E148
:10361000AF51B05D08E2200EBD6F0001DBEC0CF095
:103620000201AF07F5D7B0C201F000011200A8C235
:10363000ACF2A7C2ABF20201AE6B0A0EAD6F000195
:1036400036EC08F000C0ABF2020103C0ACF203C0DC
:10365000AEF200C0ADF2AF6B000184DF2E0E0201AE
:10366000BD6F0001DBEC0CF0A8C2ACF2A7C2ABF25C
:103670000201AE6B0A0EAD6F000136EC08F002C01D
:10368000ACF201C0ABF202C0AEF201C0ADF2020179
:10369000AF6B000167DF01C0AAF2020E0201AA2788
:1036A000A951AA5D08E2200EBD6F0001DBEC0CF011
:1036B0000201AA2BF5D76B9300011200020E020142
:1036C000A66F0A0EA76F0001CAEC0CF04E0EF66E44
:1036D000050EF76EF0EC0CF01200020E0201A66F60
:1036E0000A0EA76F0001CAEC0CF0420EF66E050E32
:1036F000F76EF0EC0CF012009BC2BDF29AC2BCF265
:103700003DEC0EF003C097F002C096F001C095F0BA
:1037100000C094F097C0CBF296C0CAF295C0C9F22F
:1037200094C0C8F20201CF6BCE6B200ECD6F820E1B
:10373000CC6F000158EC0EF003C097F002C096F079
:1037400001C095F000C094F099C2E1F098C2E0F099
:103750009BC2E3F09AC2E2F0E56BE46BE8950201EC
:1037600099519B5D09E303E19A51985D05E20001DF
:10377000E881A4DF04D002010001E891AEDF02017C
:10378000A66BA76B0001CAEC0CF0680EF66E050E76
:10379000F76EF0EC0CF0010E0201A66F130EA76F8E
:1037A0000001CAEC0CF09BC2A8F29AC2A7F2040E68
:1037B0000201A96F00013BDF5BEC0DF01200F096F7
:1037C0009D92829392908990829592928992829111
:1037D000836B12000201AC51040DF350AE6BAD6F60
:1037E000030EAD25016E000EAE21036E01501E0FBB
:1037F000E96E000E0320EA6EEF50020815E1AC51AD
:10380000040DF350AE6BAD6F030EAD25016E000ECF
:10381000AE21036E01501E0FE96E000E0320EA6E0A
:10382000EF6A010E016E02D0000E016E000112005F
:103830000201AC51040DF350AF6BAE6F020EAE251A
:10384000016E000EAF21036E01501E0FE96E000ED7
:103850000320EA6EAD51EF5C03E3010E016E02D06E
:10386000000E016E0001120002016BB50CD06B85D9
:103870000001A5DF929489940201A06B00014BDE48
:103880005BEC0DF00201050EAC6F0001A3DF0152ED
:1038900008E0000E82B5010E010A8295E8B082852B
:1038A0005ED00201AC6B000195DF01520CE001011A
:1038B000E751020801E2E76B010E0201A06F00016F
:1038C0001CEC08F04CD0020E0201AC6F000182DF4C
:1038D00001520AE0030E0101E76F010E0201A06F21
:1038E00000011CEC08F03BD0060E0201AC6F000199
:1038F00071DF015207E0020E0201A06F00011CEC13
:1039000008F02DD0080E0201AC6F000163DF0152F8
:1039100007E0080E0201A06F00011CEC08F01FD0A8
:10392000020E0201AC6F280EAD6F000181DF015263
:1039300007E0090E0201A06F00011CEC08F00FD097
:10394000010E0201AC6F280EAD6F000171DF015254
:1039500006E00A0E0201A06F00011CEC08F01EEF49
:1039600030F00201A751016AA65D03E2A6C200F091
:103970000CD0006A080EA86FA6370036A751005C6D
:10398000D8B0006E0136A82FF7D70001120002014F
:103990006B93A36BA351A32B036A9D0FE96E020ED9
:1039A0000320EA6E9BC2ACF29AC2ABF2AE6B0A0E77
:1039B000AD6F000136EC08F000C0EFFF9BC2ACF227
:1039C0009AC2ABF20201AE6B0A0EAD6F000136EC8B
:1039D00008F002C09BF201C09AF202019A53DAE1A8
:1039E0009B53D8E1A3C2A4F2A4519C5DD8A0A4C269
:1039F0009CF2A307036AA3519D0FE96E020E0320F8
:103A0000EA6EEFCFA6F20A0EA76F0001AADF300E12
:103A100000240201A56FBD6F0001DBEC0CF0020178
:103A20009C07A353E6E19C5308E0200EBD6F000104
:103A3000DBEC0CF002019C07F6D7A4C201F00001F8
:103A4000120002016B9395C2ACF294C2ABF2AE6B62
:103A50000A0EAD6F000136EC08F002C099F201C009
:103A600098F202C09BF201C09AF202019C6B000125
:103A70008EDF01C097F22E0E0201BD6F0001DBEC5C
:103A80000CF095C2ACF294C2ABF20201AE6B0A0E1E
:103A9000AD6F000136EC08F000C098F2020103C0DF
:103AA00099F203C09BF200C09AF29C6B00016FDF99
:103AB000020E020197279651975D08E2200EBD6F16
:103AC0000001DBEC0CF00201972BF5D7000112008E
:103AD000010E0201A66F080EA76F0001CAEC0CF0E0
:103AE0000101E751070DF350036A0201946F6E0E56
:103AF000F66E040EF76E9451F626000EF7220001C2
:103B0000F0EC0CF0010E0201A66F130EA76F00017E
:103B1000CAEC0CF00101E751080DF3500201956B5E
:103B2000946F040E9425016E000E9521036E0150D2
:103B3000EF0FE96E000E0320EA6EECCFA8F2ED5213
:103B4000EFCFA7F2040EA96F000171DDFAEF1DF0AF
:103B50004E50016E0FEF1FF00101E55302E1E653F5
:103B600008E0040E0201A06F00011CEC08F007D071
:103B70000101050E0201A06F00011CEC08F02EEF00
:103B80001FF002016BB539D06B9B6B85010EA06FE6
:103B90000001C1DC9DC081F29CC080F20101E751AF
:103BA000080DF350036AEF0F016E000E032201C0EF
:103BB00094F2020103C095F2010EEA6EDF0EE96E87
:103BC00003C0E2FF01C0E1FF080E016EE6CFEEFF89
:103BD000012EFCD7010EA66FA76B0001CAEC0CF0FA
:103BE00081C295F280C294F2040E0201966F000128
:103BF00028DF6ED75BEC0DF0020100019C51020141
:103C0000805D05E100019D510201815D16E09DC0CE
:103C100081F29CC080F2010EA66FA76B0001CAEC76
:103C20000CF081C295F280C294F2040E0201966FEC
:103C3000000107DF5BEC0DF00201010EA56F260EFF
:103C4000A46F020EA76F2A0EA66F010EA86FA9918E
:103C5000030EAC6F0001BEDD01521EE00201A55152
:103C60000101E45D10E308E1E3510201A45DD8A085
:103C700002D0010108D00101E351D8B4E407E30701
:103C80000201A98108D00201A85305E0A7C2E4F10E
:103C9000A6C2E3F1A9810001030E0201AC6F0A0E76
:103CA000AD6F0001C5DD015204E0020E2C5E2D6AED
:103CB000D5D7040E0201AC6F00018CDD01521DE06E
:103CC0000101E4510201A75D10E308E1A6510101E1
:103CD000E35DD8A002D0020108D002010101E32B6C
:103CE000D8B4E42B0201A98107D0A85305E0A5C2EE
:103CF000E4F1A4C2E3F1A9810001040E0201AC6F5A
:103D00000A0EAD6F000194DD015204E0020E305E38
:103D1000316AD6D7000E0201A9B1010E016E01521F
:103D200013E0010EA66F130EA76F0001CAEC0CF092
:103D3000E4C1A8F2E3C1A7F2040E0201A96F0001D9
:103D400076DC5BEC0DF002010101E751030865E050
:103D50000201AC6B00013EDD015251E00101E72B95
:103D6000E751020801E2E76B010E0201A66F080E9F
:103D7000A76F0001CAEC0CF00101E751070DF350E9
:103D8000036A0201946F6E0EF66E040EF76E945184
:103D9000F626000EF7220001F0EC0CF0010E0201F5
:103DA000A66F130EA76F0001CAEC0CF00101E751DA
:103DB000080DF350036AEF0F016E000E032201C0DD
:103DC00094F2020103C095F2010EEA6EDF0EE96E75
:103DD00003C0E2FF01C0E1FF080E016EE6CFEEFF77
:103DE000012EFCD7E4C1A8F2E3C1A7F2040EA96F2B
:103DF00000011DDC5BEC0DF002016B8B0001060E77
:103E00000201AC6F0001E6DC015206E0020E020185
:103E1000A06F00011CEC08F00101000199D60150CF
:103E2000C7081DE202016BAB17D06B9BF250006E0E
:103E3000F29EF10EA96EE7C1A8FFA69CA69EA684DD
:103E40000F01550EA76EAA0EA76EA682A6B2FED7C8
:103E5000A6940050F212020100017ED625D00A0E6F
:103E60000201AC6F0001B6DC01521EE002016BAB37
:103E700017D06B9BF250006EF29EF10EA96EE7C157
:103E8000A8FFA69CA69EA6840F01550EA76EAA0E9B
:103E9000A76EA682A6B2FED7A6940050F212020127
:103EA000A06B00011CEC08F01EEF30F00101E7519F
:103EB000080DF3500201A66BA56FEF0EA525016E4C
:103EC000000EA621036E01C0A0F2A16F0101E7510F
:103ED000080DF3500201A86BA76F060EA725016E0F
:103EE000000EA821036E0150EF0F016E000E032299
:103EF00001C0A2F203C0A3F2A46BA45104083DE3E5
:103F0000A45102081EE3010EA425A56FA66F130E8F
:103F1000A76F0001CAEC0CF0A1C2EAFF0201A0C227
:103F2000E9FFECCFA8F2ED52EFCFA7F2040EA96F94
:103F3000000117EC1BF0020E0201A027D8B0A12B44
:103F40001AD0010EA425A56FA66F130EA76F00014E
:103F5000CAEC0CF0A3C2EAFF0201A2C2E9FFEFCF54
:103F6000ADF2AE6B020EAF6F0001B2EC1AF00201BF
:103F7000A22BD8B4A32BA42BC0D70001120071C26E
:103F8000A6F20201A76B0001CAEC0CF0A0C2BDF2C0
:103F9000DBEC0CF012000201A66B0E0EA76F000105
:103FA000CAEC0CF00101E751070DF350036A02015E
:103FB000A06F6E0EF66E040EF76EA051F626000E80
:103FC000F7220001F0EC0CF071DF2A0E0201A06F65
:103FD0000001D5DF5BEC0DF0120071C2A6F2020108
:103FE000A76B0001CAEC0CF0200E0201BD6F0001AE
:103FF000DBEC0CF034EF20F00201A191A05305E1BD
:104000006E5302E06E6BA18113D0A051020805E14E
:104010006E5302E06E07A1810BD0A02D09D0040ED3
:104020006E250101EC5D05E004E302016E2BA18128
:104030000101000E0201A1B1010E016E000112008A
:1040400002016BB509D06B856B9D020EA06F00015C
:104050008BEC1AF0A0DF0201060EAC6F0001EAEC57
:104060001BF001522AE0B9D70201712B010E0101A8
:10407000EC5D0201715D02E001E3716B2A0EA06F3D
:1040800000017DDF030E02016E25715D07E006E38E
:10409000010EA06F0001B0DF06D00201715304E1F0
:1040A000A06B0001A9DF020100015BEC0DF00C0E1A
:1040B0000201A16F0001F5EC07F002017151000A45
:1040C000000110E0010AD8B485D0030AD8B482D028
:1040D000010AD8B47FD0070AD8B440D1010AD8B4B5
:1040E0003DD102D20201976BE7C196F2996B986BB2
:1040F0009B6B1D0E9A6F99C2A5F298C2A4F29BC247
:10410000A7F29AC2A6F2010EA86FA991030EAC6F96
:104110000001EAEC1BF0015216E00201A551975D87
:104120000AE303E19651A45D06E29651D8B49707DD
:104130009607A98107D0A85305E0A7C297F2A6C2A7
:1041400096F2A9810001030E0201AC6F0A0EAD6F59
:10415000000118EC1CF0015204E0020E2C5E2D6AE6
:10416000DCD7040E0201AC6F0001EAEC1BF0015237
:1041700015E002019751A75D09E303E1A651965DA1
:1041800005E2962BD8B4972BA98107D0A85305E058
:10419000A5C297F2A4C296F2A9810001040E020101
:1041A000AC6F0A0EAD6F000118EC1CF0015204E078
:1041B000020E305E316ADDD7000E0201A9B1010E98
:1041C000016E015206E096C2E7F10001E4DE020151
:1041D0006B8D8BD10101E751080DF350036AEF0F8E
:1041E000016E000E032201C09CF2020103C09DF289
:1041F000D89071359C27000E9D23020E9C5F000E07
:104200009D5B9DC2EAFF9CC2E9FFECCF95F2ED52A7
:10421000EFCF94F2010E715D006ED8900036005021
:10422000036A050F016E000E03220150000192EC9B
:1042300000F00900F5CF03F00201A06F03C0A1F266
:10424000010E715D006ED89000360050036A0F0FAA
:10425000016E000E03220150000192EC00F00900F3
:10426000F5CF03F00201A26F03C0A3F2A1C2A5F231
:10427000A0C2A4F2A3C2A7F2A2C2A6F2010EA86F26
:10428000A991030EAC6F0001EAEC1BF0015216E09D
:104290000201A551955D0AE303E19451A45D06E294
:1042A0009451D8B495079407A98107D0A85305E085
:1042B000A7C295F2A6C294F2A9810001030E0201E1
:1042C000AC6F0A0EAD6F000118EC1CF0015204E057
:1042D000020E2C5E2D6ADCD7040E0201AC6F0001C9
:1042E000EAEC1BF0015215E002019551A75D09E3CC
:1042F00003E1A651945D05E2942BD8B4952BA981D6
:1043000007D0A85305E0A5C295F2A4C294F2A981F2
:104310000001040E0201AC6F0A0EAD6F000118EC33
:104320001CF0015204E0020E305E316ADDD7000E4F
:104330000201A9B1010E016E01520FE09DC2EAFF18
:104340009CC2E9FF95C2ECFFED5294C2EFFF000161
:10435000ADDD5BEC0DF002016B8DC7D00101E751C3
:10436000080DF3500201A16BA06F060EA025016E8F
:10437000000EA121036E0150EF0F016E000E03220B
:1043800001C09EF203C09FF271519E27000E9F2331
:10439000040E9E5F000E9F5B9FC2EAFF9EC2E9FF74
:1043A000956BEFCF94F2010E715D006ED8900036E0
:1043B0000050036A050F016E000E03220150000138
:1043C00092EC00F00900F5CF03F00201A06F03C0EA
:1043D000A1F2010E715D006ED89000360050036AA4
:1043E0000F0F016E000E03220150000192EC00F04D
:1043F0000900F5CF03F00201A26F03C0A3F2A1C22E
:10440000A5F2A0C2A4F2A3C2A7F2A2C2A6F2010E14
:10441000A86FA991030EAC6F0001EAEC1BF00152EA
:1044200016E00201A551955D0AE303E19451A45DF4
:1044300006E29451D8B495079407A98107D0A853F0
:1044400005E0A7C295F2A6C294F2A9810001030E6D
:104450000201AC6F0A0EAD6F000118EC1CF00152A6
:1044600004E0020E2C5E2D6ADCD7040E0201AC6F54
:104470000001EAEC1BF0015215E002019551A75D25
:1044800009E303E1A651945D05E2942BD8B4952B82
:10449000A98107D0A85305E0A5C295F2A4C294F261
:1044A000A9810001040E0201AC6F0A0EAD6F00017C
:1044B00018EC1CF0015204E0020E305E316ADDD7C8
:1044C000000E0201A9B1010E016E01520CE09FC263
:1044D000EAFF9EC2E9FF94C2EFFF0001E7DC5BEC5C
:1044E0000DF002016B8D01D00201AC6B0001EAEC12
:1044F0001BF0015229E002016BAD21D0EF0EA06F3D
:10450000A26BA46BA36FF00EA56F00018AEC06F0FE
:10451000F250006EF29EF10EA96EE7C1A8FFA69CB4
:10452000A69EA6840F01550EA76EAA0EA76EA682A0
:10453000A6B2FED7A6940050F21202016B9D010EA6
:10454000A06F00011CEC08F00A0E0201AC6F000124
:10455000EAEC1BF0015228E002016BAD21D0EF0E16
:10456000A06FA26BA46BA36FF00EA56F00018AEC85
:1045700006F0F250006EF29EF10EA96EE7C1A8FFA0
:10458000A69CA69EA6840F01550EA76EAA0EA76E26
:10459000A682A6B2FED7A6940050F21202016B9D2D
:1045A000A06B00011CEC08F01EEF30F0015097C228
:1045B000A6F2640E0201A76F0001B1EC1CF000C06E
:1045C00097F20150300E08E1020198A310D098B77D
:1045D0000ED098B9200E04D002019897989998812E
:1045E000012601C0BDF20001DBEC0CF0020197C214
:1045F000A6F20A0EA76F0001B1EC1CF000C097F202
:104600000150300E08E1020198B70BD098A109D0F3
:1046100098B9200E0001012601C0BDF2DBEC0CF0C0
:104620000201300E972797C2BDF20001DBEC0CF0BF
:10463000120002016BB53DD06B85826B030EA66F35
:10464000A76B0001CAEC0CF002016B935A0EF66ED8
:10465000050EF76E0001F0EC0CF0E5C197F2010ECB
:104660000201986F0001A2DF3A0E0201BD6F000146
:10467000DBEC0CF0E6C197F2010E0201986F00012D
:1046800095DF3A0E0201BD6F0001DBEC0CF082C237
:1046900097F2010E0201986F000188DF5BEC0DF0CC
:1046A000020E0201986F850E976F00018BEC08F0E7
:1046B000020100019C510201835D05E100019D5151
:1046C0000201845D17E09DC084F29CC083F2010E5C
:1046D000A66FA76B0001CAEC0CF084C295F283C2EE
:1046E00094F2040E0201966F000121EC1DF05BECC8
:1046F0000DF00201020E976F850E966F030E996FF3
:10470000E80E986F0001B3EC09F0015256E0020187
:10471000825302E0820710D00101E65306E0E6076B
:104720003B0E0201826F08D00101E55306E0E50768
:104730003B0EE66F0201826F0101030E0201A66FBC
:104740000C0EA76F0001CAEC0CF0E5C197F2010E48
:104750000201986F00012ADF3A0E0201BD6F0001CD
:10476000DBEC0CF0E6C197F2010E0201986F00013C
:104770001DDF3A0E0201BD6F0001DBEC0CF082C2BE
:1047800097F2010E0201986F000110DF5BEC0DF053
:104790000201825313E10101E653D8B402D00201B1
:1047A0000DD0E553D8B402D0020108D0050E0201A5
:1047B000A06F00011CEC08F00DD002010A0EAC6FD6
:1047C0000001EAEC1BF0015205E00201A06B0001C0
:1047D0001CEC08F01EEF30F0828382858291836B9F
:1047E000120002019B6B9A6B9C6B9951975D28E3B9
:1047F00003E19851965D24E3010E9C6F9551995DFC
:1048000008E303E19851945D04E2130E016E5FD05A
:104810000AD09751955D07E303E19451965D03E259
:10482000000E016E54D09851945F9951955B97C2D8
:104830009BF296C29AF298519A5F99519B5B21D054
:104840009551975D08E303E19651945D04E2000EF3
:10485000016E3DD00AD09951955D07E303E1945173
:10486000985D03E2130E016E32D09651945F97511A
:10487000955B99C29BF298C29AF296519A5F9751B2
:104880009B5B95C2A3F294C2A2F2A56B130EA46F18
:10489000000125EC08F002C095F201C094F295C227
:1048A000ACF294C2ABF29BC2AEF29AC2ADF236EC5D
:1048B00008F002C095F201C094F202019C5305E099
:1048C000130ED8809457000E955794C201F0000142
:1048D00012009DC0E7F09CC0E6F0E8A11CD0E351B7
:1048E000E75D09E303E1E651E25D05E2E3C0E7F0DD
:1048F000E2C0E6F00FD0E151E75D06E303E1E051ED
:10490000E65D02E3E89506D0E8A504D0E1C0E7F053
:10491000E0C0E6F01BD0E751E35D09E303E1E251BB
:10492000E65D05E2E3C0E7F0E2C0E6F00FD0E75154
:10493000E15D06E303E1E651E05D02E3E89506D0C0
:10494000E8A504D0E1C0E7F0E0C0E6F0E651E45DA0
:1049500003E1E751E55D2AE0E7C0E5F0E6C0E4F0F9
:10496000010E0201A66FA76B0001CAEC0CF0E5C0B6
:1049700095F2E4C094F2040E0201966F000121EC5E
:104980001DF0E5C095F2E4C094F2E1C097F2E0C0FA
:1049900096F2E3C099F2E2C098F223DF01C094F2EC
:1049A00001C096F200EC0DF05BEC0DF01200E8A1F6
:1049B0000FD0E351E55D0BE303E1E251E45D07E372
:1049C0006DEC1BF05BEC0DF0010E016E11D00ED002
:1049D000E551E35D0BE303E1E451E25D07E36DECD8
:1049E0001BF05BEC0DF0010E016E02D0000E016EAB
:1049F000120002016BB52FD06B850001EDDE9DC06A
:104A000099F29CC098F2E4C19BF2E3C19AF27CEC6B
:104A10001BF0010E0201A66FA76B0001CAEC0CF09F
:104A20009DC095F29CC094F2040E0201966F0001A5
:104A300021EC1DF0030E0201A66FA76B0001CAEC6A
:104A40000CF07E0EF66E050EF76EF0EC0CF041DF0A
:104A50005BEC0DF0020100013CDFA9DF015206E032
:104A6000060E0201A06F00011CEC08F00A0E020104
:104A7000AC6F0001EAEC1BF0015205E00201A06BF3
:104A800000011CEC08F01EEF30F002016BB529D0DC
:104A90006B858791776B6B9F92948984A66BA76BCC
:104AA0000001CAEC0CF0940EF66E050EF76EF0ECF9
:104AB0000CF0020E0201A66FA76B0001CAEC0CF00D
:104AC000AA0EF66E050EF76EF0EC0CF05BEC0DF036
:104AD000020E0201986F790E976F00018BEC08F0BF
:104AE000020187B136D0020E976F790E966F030ED2
:104AF000996FE80E986F0001B3EC09F0015228E0BD
:104B00000201775326E192948974000E6BBF010E67
:104B1000010A6B9FE8B06B8F6BAF0DD0A66BA76BD4
:104B20000001CAEC0CF0C00EF66E050EF76EF0EC4C
:104B30000CF00CD00201A66BA76B0001CAEC0CF0C4
:104B4000D60EF66E050EF76EF0EC0CF05BEC0DF089
:104B50000201010EAC6F0001EAEC1BF001524EE0C5
:104B600092948994020177530CE1E3C099F2E2C078
:104B700098F2010E9B6F420E9A6F00017CEC1BF0C5
:104B800002010001E8850201772B7751030802E258
:104B9000010E776F772D0ED0020EA66FA76B000166
:104BA000CAEC0CF0EC0EF66E050EF76EF0EC0CF0A5
:104BB00021D00201775102080EE1020EA66FA76B09
:104BC0000001CAEC0CF0F80EF66E050EF76EF0EC74
:104BD0000CF010D00201775103080DE1020EA66F10
:104BE000A76B0001CAEC0CF0040EF66E060EF76E11
:104BF000F0EC0CF0020100015BEC0DF002017753C8
:104C00001DE087B11BD0000164DED1DE015203E05C
:104C1000020187810001020187A110D0100EF66EFB
:104C2000060EF76E000159EC06F002017891070EAE
:104C3000A06F00011CEC08F00DD002010A0EAC6F51
:104C40000001EAEC1BF0015205E00201A06B00013B
:104C50001CEC08F01EEF30F00201986BE90E976F24
:104C600000018BEC08F0EB8194C2ECF095C2EDF002
:104C700096C2EEF0030E0201A66F0C0EA76F0001A4
:104C8000CAEC0CF094C297F2010E0201986F000179
:104C90008DDC3A0E0201BD6F0001DBEC0CF095C219
:104CA00097F2010E0201986F000180DC3A0E0201BA
:104CB000BD6F0001DBEC0CF096C297F2010E020111
:104CC000986F000173DC5BEC0DF012000201976B32
:104CD000E90E966F030E996FE80E986F0001B3EC22
:104CE00009F0015244E0EE5302E0EE070CD0ED5320
:104CF00004E0ED073B0EEE6F06D0EC5304E0EC074A
:104D00003B0EED6FEE6F030E0201A66F0C0EA76F48
:104D10000001CAEC0CF0ECC097F2010E0201986F92
:104D2000000144DC3A0E0201BD6F0001DBEC0CF027
:104D3000EDC097F2010E0201986F000137DC3A0EC8
:104D40000201BD6F0001DBEC0CF0EEC097F2010E2A
:104D50000201986F00012ADC5BEC0DF0EE5307E1D5
:104D6000ED5305E1EC5303E1010E016E02D0000E9C
:104D7000016E1200020178B119D0886B78817B6BCB
:104D8000A66BA76B0001CAEC0CF01E0EF66E060EA9
:104D9000F76EF0EC0CF05BEC0DF0020E0201986F78
:104DA000790E976F00018BEC08F002017B51000A2D
:104DB000000119E0010AD8B4A1D0030AD8B4D5D0B3
:104DC000010AD8B420D1070AD8B483D1010AD8B4D3
:104DD000D3D1030AD8B4E7D1010AD8B40FD20F0A4D
:104DE000D8B418D230D2020E0201976F790E966FA6
:104DF000030E996FE80E986F0001B3EC09F00152B1
:104E000026E092948974000E020187B3010E010A14
:104E10008793E8B0878387A30DD0A66BA76B0001AB
:104E2000CAEC0CF0340EF66E060EF76EF0EC0CF0D9
:104E30000CD00201A66BA76B0001CAEC0CF04A0E65
:104E4000F66E060EF76EF0EC0CF05BEC0DF0010E5A
:104E50000201AC6F0001EAEC1BF001524EE09294AB
:104E60008994010E02017B6F772D0DD0010E996F91
:104E7000420E986FE0C19BF2DFC19AF200017CEC18
:104E80001BF038D002010101E751080DF350020177
:104E9000956B946FEF0E9425E96E000E9521EA6EE6
:104EA000ECCF97F2ED52EFCF96F20101E751080DEA
:104EB000F3500201996B986F020E9825016E000E57
:104EC0009921036E0150EF0FE96E000E0320EA6E88
:104ED000ECCF03F0ED52EF50965F0350975B010E5D
:104EE000996F420E986F97C29BF296C29AF2000198
:104EF0007CEC1BF0E8855BEC0DF0A5D1EADC57DD1E
:104F0000015232E0020E02017B6FE3C099F2E2C06F
:104F100098F2E0C19BF2DFC19AF200017CEC1BF039
:104F2000E885020E0201A66FA76B0001CAEC0CF027
:104F3000600EF66E060EF76EF0EC0CF0030E02013A
:104F4000A66FA76B0001CAEC0CF06C0EF66E060E95
:104F5000F76EF0EC0CF00201946B956B3C0E966FC3
:104F600000017ADE5BEC0DF06ED1B3DCAFDE0152F6
:104F700049E002017751030827E1040E7B6FA66B1D
:104F8000A76B0001CAEC0CF0760EF66E060EF76EFB
:104F9000F0EC0CF0010E0201946F050E956F966B0C
:104FA00000015ADE0201886B030EA66FA76B000199
:104FB000CAEC0CF08C0EF66E060EF76EF0EC0CF0F0
:104FC0005BEC0DF01FD00201030E7B6FA66BA76B8D
:104FD0000001CAEC0CF0960EF66E060EF76EF0ECC1
:104FE0000CF0020E0201A66FA76B0001CAEC0CF0D8
:104FF000AC0EF66E060EF76EF0EC0CF06DEC1BF0DE
:105000005BEC0DF020D165DC020E0201976F790E8A
:10501000966F030E996FE80E986F0001B3EC09F0DC
:10502000015226E092948974000E020187B3010EAA
:10503000010A8793E8B0878387A30DD0A66BA76B7F
:105040000001CAEC0CF0B80EF66E060EF76EF0EC2E
:105050000CF00CD00201A66BA76B0001CAEC0CF09F
:10506000CE0EF66E060EF76EF0EC0CF05BEC0DF06B
:10507000010E0201AC6F0001EAEC1BF0015228E0C6
:1050800092948994040E02017B6FA66BA76B0001BA
:10509000CAEC0CF0E40EF66E060EF76EF0EC0CF0B7
:1050A000010E0201946F050E956F966B0001D4DD21
:1050B0000201886B030EA66FA76B0001CAEC0CF00F
:1050C000FA0EF66E060EF76EF0EC0CF05BEC0DF0DF
:1050D000BAD0FCDD015208E06DEC1BF05BEC0DF08A
:1050E000080E02017B6F0001010E0201AC6F00018E
:1050F000EAEC1BF001523DE0020188530CE1010E85
:10510000886F946B050E956F966B0001A5DD5BECC7
:105110000DF02FD00201882D2DD0020E886F050EC4
:105120007B6FE3C099F2E2C098F2010E9B6F5E0EB6
:105130009A6F00017CEC1BF0E885020E0201A66F5D
:10514000A76B0001CAEC0CF0040EF66E070EF76EAA
:10515000F0EC0CF0030E0201A66FA76B0001CAEC85
:105160000CF0100EF66E070EF76EF0EC0CF05BEC28
:105170000DF00201000167D069EC24F018DC015247
:1051800011E0060E02017B6FE3C099F2E2C098F2D3
:10519000E0C19BF2DFC19AF200017CEC1BF0E885D4
:1051A0005BEC0DF050D069EC24F001DC015225E0FD
:1051B000070E02017B6FA66BA76B0001CAEC0CF017
:1051C000260EF66E070EF76EF0EC0CF0020E0201E2
:1051D000A66FA76B0001CAEC0CF03C0EF66E070E32
:1051E000F76EF0EC0CF0010E0201946F050E956F56
:1051F000966B000131DD5BEC0DF025D067DD0152CF
:1052000008E06DEC1BF05BEC0DF0080E02017B6F0B
:10521000000119D0DFEC1BF0480EF66E070EF76E9A
:1052200059EC06F0500EF66E070EF76E59EC06F0CC
:10523000580EF66E070EF76E59EC06F0090E0201D5
:105240007B6F000100D00A0E0201AC6F0001EAEC96
:105250001BF0015205E00201A06B00011CEC08F0FC
:105260001EEF30F002016BB570D06B859DC07DF2F2
:105270009CC07CF20001976B966B5E0E956F870E5B
:10528000946F97C0CBF296C0CAF295C0C9F294C091
:10529000C8F20201CF6BCE6B200ECD6F820ECC6FA9
:1052A000000158EC0EF003C097F002C096F001C068
:1052B00095F000C094F002017D51000805E2FF0A5C
:1052C0000AE17C51BC0807E37D51010806E303E1D4
:1052D0007C51410802E36B9901D06B896B97050EF5
:1052E000A06F00018BEC1AF0010E0201A66FA76BF4
:1052F0000001CAEC0CF07DC295F27CC294F2040E5F
:105300000201966F000121EC1DF0010E0201A66F53
:10531000130EA76F0001CAEC0CF0010E0201A86F7A
:10532000BC0EA76F040EA96F000117EC1BF05BEC1D
:105330000DF002017D51010808E303E17C51BB0837
:1053400004E30001ECEC23F0020100019C51020196
:105350007C5D05E100019D5102017D5D1EE09DC067
:105360007DF29CC07CF26BA918D07D5100080AE246
:10537000FF0A03E17C51BC0805E2010E7D6FBC0E03
:105380007C6F0BD07D51010808E303E17C5141089B
:1053900004E3010E7D6F420E7C6F7C517E5D03E164
:1053A0007D517F5D46E07DC27FF27CC27EF2010EC0
:1053B000A66FA76B0001CAEC0CF07DC295F27CC20F
:1053C00094F2040E0201966F000121EC1DF002011F
:1053D0006BB717D07FC295F27EC294F2010E976F21
:1053E000420E966F010E996FBC0E986F0001F1ECA2
:1053F00023F001C094F201C096F200EC0DF016D03B
:1054000002017FC295F27EC294F2010E976FBC0E2C
:10541000966F010E996F420E986F0001F1EC23F028
:1054200001C094F201C096F200EC0DF05BEC0DF0BF
:1054300002016BB75AD07F51000856E2FF0A03E120
:105440007E51BB0851E26B87929289920001976B63
:10545000966B210E956F870E946F97C0CBF296C016
:10546000CAF295C0C9F294C0C8F20201CF6BCE6BEC
:10547000200ECD6F820ECC6F000158EC0EF003C0F1
:1054800097F002C096F001C095F000C094F0010EB4
:105490000201A66F130EA76F0001CAEC0CF0010EFB
:1054A0000201A86F420EA76F040EA96F000117EC4E
:1054B0001BF07FC295F27EC294F2010E0201976F3B
:1054C000BC0E966F010E996F420E986F0001F1ECC1
:1054D00023F001C094F201C096F200EC0DF06DECE7
:1054E0001BF05BEC0DF0020157D07F51010854E333
:1054F00003E17E51420850E36B970001976B966B76
:105500005E0E956F870E946F97C0CBF296C0CAF26D
:1055100095C0C9F294C0C8F20201CF6BCE6B200EC9
:10552000CD6F820ECC6F000158EC0EF003C097F0E7
:1055300002C096F001C095F000C094F002016B89A2
:10554000010EA66F130EA76F0001CAEC0CF0010E3E
:105550000201A86FBC0EA76F040EA96F000117EC23
:105560001BF07FC295F27EC294F2010E0201976F8A
:10557000420E966F010E996FBC0E986F0001F1EC10
:1055800023F001C094F201C096F200EC0DF05EEC45
:105590001BF05BEC0DF002010A0EAC6F0001EAECAF
:1055A0001BF0015205E00201A06B00011CEC08F0A9
:1055B0001EEF30F002016BB51AD06B85030EA06FA1
:1055C00000018BEC1AF0010E0201A66F120EA76FFC
:1055D0000001CAEC0CF00201AE6BE8C1ADF2030EA3
:1055E000AF6F0001B2EC1AF05BEC0DF00201956BAD
:1055F000E8C194F2A56B0A0EA46FA76B640EA66FA8
:10560000A86BA991030EAC6F0001EAEC1BF00152EC
:1056100016E00201A551955D0AE303E19451A45DF2
:1056200006E29451D8B495079407A98107D0A853EE
:1056300005E0A7C295F2A6C294F2A9810001030E6B
:105640000201AC6F0A0EAD6F000118EC1CF00152A4
:1056500004E0020E2C5E2D6ADCD7040E0201AC6F52
:105660000001EAEC1BF0015215E002019551A75D23
:1056700009E303E1A651945D05E2942BD8B4952B80
:10568000A98107D0A85305E0A5C295F2A4C294F25F
:10569000A9810001040E0201AC6F0A0EAD6F00017A
:1056A00018EC1CF0015204E0020E305E316ADDD7C6
:1056B000000E0201A9B1010E016E015216E094C262
:1056C000E8F1010EA66F120EA76F0001CAEC0CF0F4
:1056D00095C2AEF294C2ADF2030E0201AF6F0001AB
:1056E000B2EC1AF05BEC0DF002010A0EAC6F000197
:1056F000EAEC1BF0015215E0010E0201976FE70E74
:10570000966FF10EA26F97C2A4F296C2A3F2040E96
:10571000A56F00018AEC06F00201A06B00011CECF1
:1057200008F01EEF30F002016BB51BD06B85040E44
:10573000A06F00018BEC1AF0010E0201A66F120E91
:10574000A76F0001CAEC0CF0EAC1AEF2E9C1ADF2FC
:10575000030E0201AF6F0001B2EC1AF05BEC0DF02A
:105760000201A56B640EA46F010EA76F2C0EA66F2D
:10577000A86BA991030EAC6F0001EAEC1BF001527B
:105780001EE00201A5510101EA5D10E308E1E951C3
:105790000201A45DD8A002D0010108D00101E951A5
:1057A000D8B4EA07E9070201A98108D00201A85389
:1057B00005E0A7C2EAF1A6C2E9F1A9810001030E42
:1057C0000201AC6F0A0EAD6F000118EC1CF0015223
:1057D00004E0020E2C5E2D6AD4D7040E0201AC6FD9
:1057E0000001EAEC1BF001521DE00101EA51020147
:1057F000A75D10E308E1A6510101E95DD8A002D040
:10580000020108D002010101E92BD8B4EA2B020100
:10581000A98107D0A85305E0A5C2EAF1A4C2E9F125
:10582000A9810001040E0201AC6F0A0EAD6F0001E8
:1058300018EC1CF0015204E0020E305E316AD5D73C
:10584000000E0201A9B1010E016E015214E0010E19
:10585000A66F120EA76F0001CAEC0CF0EAC1AEF2FF
:10586000E9C1ADF2030E0201AF6F0001B2EC1AF014
:105870005BEC0DF002010A0EAC6F0001EAEC1BF0CC
:10588000015215E0010E0201956FE70E946FF10EC3
:10589000A26F95C2A4F294C2A3F2040EA56F0001F8
:1058A0008AEC06F00201A06B00011CEC08F01EEF70
:1058B00030F0F86AD09E078E1A6A150EAF6EA60EEB
:1058C000AC6E900EAB6EC69A000EC76E320EC66EF0
:1058D000949A948894961B6A4E6A5F6A616A606AB9
:1058E0006B6A6A6A696A686A6D6A6C6A8291836BBC
:1058F000876B866B200E856F850E846F8B6B400ED9
:105900008A6F260E896F890E886F9A0E8F6F990E97
:105910008E6F190E8D6F7F0E8C6F936B926B916BE8
:105920007E0E906F976B966B956B946B82938295BE
:1059300082978299986B829B020E996F829D9B6BD6
:105940009A6B9D6B9C6B9E6FA26BA16BA06B9F6B08
:10595000829FCB6BCD6BCC6B02016B916C6B6D6BD3
:105960006B936E6B010E706FED0E6F6F716B736BDF
:10597000726B746B6B95C180C182C184C1966B9749
:105980006B996B9B6B9D6B9F87918793879515D0C8
:105990000C40530002006200001100CE706572637B
:1059A000656E743D0072657374617274000B427CA5
:1059B00000040288000000000000000EF86E590E7E
:1059C000F76E900EF66E0900F550006E000A13E0B7
:1059D0000900F550016EE8BE05D03F0BEA6E0900E4
:1059E000F5CFE9FF01BC090001AC0900F5CFEEFFDE
:1059F000004EE9D7F9D7F86A0001A6EF04F0F0EFFE
:105A000004F0080E0201946FFA0E966F0001DBECB1
:105A100004F00201942FF8D70001A3EF05F00A0E5D
:105A20000201966F0001DBEC04F0F5EF05F028ECC5
:105A300005F00152D8A434EC06F0280EF66E080EDC
:105A4000F76E59EC06F077EF06F0F1EF06F0939A57
:105A50008A8A0201A06B00011CEC08F09EAA05D006
:105A60009EAA03D0D6EC03F0FBD7F09692928992CF
:105A7000480E0509CA6E180ECB6EB50ECD6E9D8010
:105A80000B0ECF6EDC0ECE6E00009D8AC00EF212A1
:105A90000201986B640E976F00018BEC08F0020115
:105AA000986B660E976F00018BEC08F004EF0AF01C
:105AB00064EF0BF089EF0BF0A4EF0BF0006A82B7F4
:105AC000008882510018100B0CE0829982B78289FD
:105AD00082A703D0F18AF08604D0F0969D9292922C
